:100000000C94D4000C94FC000C94FC000C94FC00A8
:100010000C94FC000C94FC000C94FC000C94FC0070
:100020000C94FC000C94FC000C946B050C94DA0509
:100030000C94FC000C94FC000C94FC000C94FC0050
:100040000C94FC000C94FC000C94FC000C94FC0040
:100050000C94FC000C94FC000C94FC000C946408C0
:100060000C94FC000C9432080C940C080C94FC00CA
:100070000C94FC000C94FC000C94FC000C94FC0010
:100080000C94FC000C94FC000C94FC000C94FC0000
:100090000C94FC000C94FC000C94FC000C94FC00F0
:1000A0000C94FC000C94FC000C94FC00000000007C
:1000B000240027002A002D00300000000000250049
:1000C00028002B002E003100080B00020202000065
:1000D00009040000010202000005240010010524AB
:1000E000010101042402060524060001070581031D
:1000F00010004009040100020A0000000705020286
:1001000040000007058302400000040309041201B7
:100110000002EF0201404123378000010102030188
:1001200041726475696E6F204C4C43004172647576
:10013000696E6F204D6963726F000000000023003C
:10014000260029002C002F000404040404030405E5
:100150000202020204030202020206060606060664
:10016000040402020204040408020110408040104A
:1001700020408040800802040180402010020110CD
:100180008010204040200000000200090F00000302
:100190000401000C0000000000000000000000004E
:1001A000000000000000AE0811241FBECFEFDAE00F
:1001B000DEBFCDBF11E0A0E0B1E0ECEDF6E102C0A2
:1001C00005900D92A83AB107D9F722E0A8EAB1E06C
:1001D00001C01D92AA3BB207E1F710E0C4EDD0E0E8
:1001E00004C02197FE010E94660BC33DD107C9F7E9
:1001F0000E94EB080C946C0B0C940000FC018091A5
:10020000CC01882311F13FB7F89482E08093E90094
:100210002091F200822F90E01816190614F481E064
:1002200090E0882339F0289A44E64093CB0140912E
:10023000F1004083222339F02091F200211103C004
:100240002BE62093E8003FBF08958FEF9FEF0895BE
:100250002FB7F89483E08093E9009091E800892F0C
:10026000807295FF04C09091F20080E4891B2FBF3B
:1002700008958091C30181110DC082E08093BF0178
:1002800084E08093C0011092C2011092C10181E00C
:100290008093C3018FEB91E008954091AF0150919D
:1002A000B0012091AD013091AE0142175307B4F473
:1002B0009091E8009570E1F39091E80092FD19C0EB
:1002C0008093F1008091AF019091B00101968F73FE
:1002D0009927892B19F48EEF8093E8008091AF0164
:1002E0009091B00101969093B0018093AF0181E0AD
:1002F000089580E00895EF92FF920F931F93CF939C
:10030000DF93F82E192FE62E042F81E0860F880F39
:100310000E944D0183E00E944D01CF2DD12FEC0EA4
:10032000FD2EF11CCE15DF05B9F007FF13C0FE014D
:1003300084910E944D01182F80E00E944D0181237D
:1003400021968111EFCFDF91CF911F910F91FF90F7
:10035000EF9008958881EDCF81E0F5CFDF92EF92A5
:10036000FF920F931F93CF93DF93D82E8A01EB0157
:100370007B01E40EF51ECE15DF0559F0D7FE12C045
:10038000FE0184910E944D0121968111F4CF0FEF5F
:100390001FEFC801DF91CF911F910F91FF90EF9058
:1003A000DF9008958881EECF0F931F93CF93DF9353
:1003B0001F92CDB7DEB782E0898342E450E068EC5B
:1003C00070E080E80E94AE010E943901DC011296C3
:1003D0000D911C910115110589F0D801ED91FC9149
:1003E0000280F381E02DBE016F5F7F4FC801099548
:1003F00097FD04C0F80100851185ECCF89810F902D
:10040000DF91CF911F910F910895615030F02091AD
:10041000F100FC0120830196F8CF289A84E68093AE
:10042000CB010895AF92BF92CF92DF92EF92FF92ED
:100430000F931F93CF93DF936C017B018B01040F0C
:10044000151FEB015E01AE18BF08C017D10759F0A8
:100450006991D601ED91FC910190F081E02DC601EA
:100460000995892B79F7C501DF91CF911F910F91E4
:10047000FF90EF90DF90CF90BF90AF900895FC0178
:10048000538D448D252F30E0842F90E0821B930BF9
:10049000541710F0CF96089501970895FC01918D9F
:1004A000828D981761F0A28DAE0FBF2FB11D5D96A2
:1004B0008C91928D9F5F9F73928F90E008958FEF44
:1004C0009FEF0895FC01918D828D981731F0828DF8
:1004D000E80FF11D858D90E008958FEF9FEF08954F
:1004E000FC01918D228D892F90E0805C9F4F821BB3
:1004F00091098F73992708958DEC91E00E94700205
:1005000021E0892B09F420E0822F089580E090E01B
:10051000892B29F00E947C0281110C94000008951F
:10052000FC01A48DA80FB92FB11DA35ABF4F2C9168
:10053000848D90E001968F739927848FA689B7895F
:100540002C93A089B1898C9182748C93938D848D26
:10055000981306C00288F389E02D80818F7D808307
:100560000895EF92FF920F931F93CF93DF93EC01C7
:1005700081E0888F9B8D8C8D981319C0E889F9894B
:10058000808185FF14C09FB7F894EE89FF8960834E
:10059000E889F9898081827480839FBF81E090E03F
:1005A000DF91CF911F910F91FF90EF900895F62E5C
:1005B0000B8D10E00F5F1F4F0F731127E02E8C8DF6
:1005C0008E110CC00FB607FCFACFE889F98980813B
:1005D00085FFF5CFCE010E949002F1CFEB8DEC0F9D
:1005E000FD2FF11DE35AFF4FF0829FB7F8940B8F58
:1005F000EA89FB8980818062CFCFCF93C82F6DEFCE
:100600008DEC91E00E94B10265E08DEC91E00E94DA
:10061000B10262E08DEC91E00E94B1026C2F8DEC92
:1006200091E00E94B10260E08DEC91E00E94B10285
:1006300060E08DEC91E00E94B10260E08DEC91E011
:10064000CF910C94B102CF93DF93EC01888D882376
:10065000B9F0AA89BB89E889F9898C9185FD03C025
:10066000808186FD0DC00FB607FCF7CF8C9185FF0A
:10067000F2CF808185FFEDCFCE010E949002E9CFBD
:10068000DF91CF910895CF93DF931F92CDB7DEB75F
:100690006983DC01ED91FC910280F381E02D41E062
:1006A00050E0BE016F5F7F4F09950F90DF91CF91B2
:1006B000089583E08093E9008091F200882319F087
:1006C0008AE38093E80008950E94280190E008954D
:1006D000CF93DF931F92CDB7DEB7FC01848595855C
:1006E00097FD08C02FEF3FEF358724870F90DF91EC
:1006F000CF910895CE0101960E94FE00019719F452
:10070000898190E0F3CF8FEF9FEFF0CF0F931F938E
:10071000CF93DF931F92CDB7DEB78C01FC018485A8
:10072000958597FF0BC0CE0101960E94FE000197B0
:1007300071F4898190E0F80195878487F8018485B8
:1007400095850F90DF91CF911F910F9108958FEFB5
:100750009FEFF1CFFC018485958597FD0BC09FB776
:10076000F89482E08093E9008091F2009FBF90E0CE
:10077000019608959FB7F89482E08093E9008091F4
:10078000F2009FBF90E0089581508F3008F047C07D
:10079000E82FF0E0E253FC4F0C94660BEB03EF0301
:1007A000DD03E303E7030F040F040F04F203F80370
:1007B000FC03000406040F040A04809180008F7774
:1007C000809380000895809180008F7DF9CF809183
:1007D0008000877FF5CF84B58F7784BD089584B579
:1007E0008F7DFBCF809190008F778093900008954C
:1007F000809190008F7DF9CF80919000877FF5CF19
:100800008091C0008F778093C00008958091C000D0
:100810008F7DF9CF8091C200877F8093C2000895B9
:100820001F93CF93DF93282F30E0F901EA57FE4F53
:100830008491F901E959FE4FD491F901E85BFE4F2B
:10084000C491CC23A9F0162F81110E94C403EC2F70
:10085000F0E0EE0FFF1FE654FF4FA591B4918FB764
:10086000F894EC91111108C0D095DE23DC938FBF72
:10087000DF91CF911F910895DE2BF8CFCF93DF93B7
:1008800090E0FC01E959FE4F2491885B9E4FFC01EA
:1008900084918823C9F090E0880F991FFC01E455EA
:1008A000FF4FA591B491FC01E654FF4FC591D4913F
:1008B00061110DC09FB7F8948C91209582238C9381
:1008C0008881282328839FBFDF91CF9108956230CC
:1008D00051F49FB7F8943C91822F809583238C9399
:1008E000E8812E2BEFCF8FB7F894EC912E2B2C9321
:1008F0008FBFEACF3FB7F8948091A9019091AA01E8
:10090000A091AB01B091AC0126B5A89B05C02F3FCB
:1009100019F00196A11DB11D3FBFBA2FA92F982F25
:100920008827BC01CD01620F711D811D911D42E020
:10093000660F771F881F991F4A95D1F708958F92E8
:100940009F92AF92BF92CF92DF92EF92FF924B01B4
:100950005C010E947A046B017C010E947A046C198C
:100960007D098E099F09683E734081059105A8F3B2
:1009700021E0821A9108A108B10888EEC80E83E030
:10098000D81EE11CF11C81149104A104B10429F7C3
:10099000FF90EF90DF90CF90BF90AF909F908F909F
:1009A00008958F929F92AF92BF92CF92DF92EF9273
:1009B000FF920F931F93CF93DF936C017B018A010A
:1009C00080910B01882309F45CC08091CC018823BD
:1009D00009F457C08091B30180FF05C08091E00009
:1009E00082608093E000E801B12C8AEFA82E93E0AA
:1009F000892E2AE3922E209711F4BB20D9F10E9470
:100A0000280181110AC0AA94AA20D9F161E070E0FE
:100A100080E090E00E949F04EECF8C171D0611F03D
:100A20000CF08C2F9FB7F8948092E9002091E80099
:100A300025FD02C09FBFDFCF282F30E0C21BD30BA4
:100A4000F701815020F041914093F100FACFE20E7E
:100A5000F31EBB2021F09092E800B12CEBCF8091E7
:100A6000E80085FDE7CF9092E800BB24B39420977F
:100A700009F3F3CF5D9A84E68093B2011016110654
:100A80003CF081E090E0F6019383828310E000E087
:100A9000C801DF91CF911F910F91FF90EF90DF90F0
:100AA000CF90BF90AF909F908F900895FC010190E0
:100AB0000020E9F73197AF01481B590BBC018DECC1
:100AC00091E00C94120241E050E069E471E08DEC99
:100AD00091E00C9412021F920F920FB60F92112404
:100AE0008F939F938091E1009091E100937F909389
:100AF000E10083FF0FC01092E90091E09093EB00BA
:100B00001092EC0092E39093ED001092CC0198E0EB
:100B10009093F00082FF22C093E09093E9009091BF
:100B2000F200992319F09AE39093E8009091B201B2
:100B3000992341F09091B20191509093B20191119B
:100B400001C05D989091CB01992341F09091CB0128
:100B500091509093CB01911101C0289884FF18C047
:100B60008091E2008E7E81608093E2008091E100BE
:100B70008F7E8093E1008091B3018E7E80618093AF
:100B8000B3019F918F910F900FBE0F901F901895FA
:100B900080FFF7CF8091E2008E7E80618093E2003B
:100BA0008091E1008E7E8093E1008091B3018E7E82
:100BB0008160E5CF1F920F920FB60F921124CF9252
:100BC000DF92EF92FF920F931F932F933F934F93D8
:100BD0005F936F937F938F939F93AF93BF93EF93A5
:100BE000FF93CF93DF93CDB7DEB76C97DEBFCDBF5A
:100BF0001092E9008091E80083FF25C068E0CE01F3
:100C000045960E94050282EF8093E8008D8987FF58
:100C100039C09091E80090FFFCCF982F907609F0B2
:100C200034C19E894F89588D2F89F88C911131C01C
:100C3000803861F58091B4018093F1001092F10049
:100C40008EEF8093E8006C960FB6F894DEBF0FBE6F
:100C5000CDBFDF91CF91FF91EF91BF91AF919F9168
:100C60008F917F916F915F914F913F912F911F9144
:100C70000F91FF90EF90DF90CF900F900FBE0F90ED
:100C80001F9018959EEF9093E800C7CF1092F10047
:100C9000D5CF913059F48111D3CF4130510581F630
:100CA0008091B4018D7F8093B401CACF933049F411
:100CB0008111C6CF4130510519F68091B40182608F
:100CC000F2CF953041F48091E80080FFFCCF20689E
:100CD0002093E300B5CF963009F0A9C00B8D1C8D91
:100CE00022E01092E9001092B0011092AF01F212CE
:100CF0002EC01092AE011092AD010E94D4011F824D
:100D000099E09983FA8291E09E8390EA98879AEF1E
:100D100099872091AF013091B001275F3F4F3C830D
:100D20002B838D831092E9001092B0011092AF01D5
:100D30001093AE010093AD0149E050E0BE016F5F3A
:100D40007F4F80E00E94AE010E94D40179CF1093C2
:100D5000AE010093AD010E943901DC0112960D91A4
:100D60001C910115110509F451C1D801ED91FC91B7
:100D70000480F581E02DBE016B5E7F4FC8010995AF
:100D8000009709F03EC1F80100851185EACFF3E034
:100D9000FF120EC08F89882309F440C0823061F4AD
:100DA00040E86DE08CE291E00E947B01811148CF28
:100DB00081E28093EB0047CF813029F440E86BE07B
:100DC00080E291E0F1CF833099F70E943901DC0194
:100DD0001296ED90FC908E010F5F1F4F6801E11499
:100DE000F10479F0D701ED91FC910680F781E02DB7
:100DF000B801C7010995080F111DF701E084F184BE
:100E0000EECFD8011C92F60101900020E9F731974E
:100E1000BF016C197D0940E0C601C6CF6AE071E0F0
:100E2000FB01449150E080E80E94AE0109CF973069
:100E300009F4BECF983021F481E08093F10000CF17
:100E4000993009F0FDCE837009F0B2CFEEE0F1E009
:100E500081E031E096E32191222371F08093E90053
:100E60003093EB00DF0111972C912093EC009093CD
:100E7000ED008F5F873079F78EE78093EA0010925C
:100E8000EA008F898093CC01DBCE8B8D9C8D1092F4
:100E9000E9001092B0011092AF019093AE018093DF
:100EA000AD01898D811192C08E899D89913A49F455
:100EB000813209F07DCF47E050E064E071E080E0EE
:100EC000B3CF913209F074CF833269F48F89988D52
:100ED000B0E0A0E08093000190930101A093020193
:100EE000B0930301ADCE803269F48091E80082FFB7
:100EF000FCCF67E084E091E00E9405028BEF8093D5
:100F0000E8009ECE823209F09BCE8F8980930B0140
:100F1000EEEFFFE7859194918B3F9C4D51F1E0E01E
:100F2000F8E08091040190910501A0910601B09133
:100F30000701803B9440A105B105F1F480910B01BC
:100F400080FD1AC0EE3F8AE0F80789F587E797E74A
:100F500091838083809160008093B10188E19BE060
:100F60000FB6F894A895809360000FBE9093600030
:100F700067CEEEEFFAE0D5CF808191818737974732
:100F800009F05ECEA8958091600088618093600032
:100F90008091B10180936000EE3F2AE0F20789F072
:100FA0008091FE0A9091FF0A9183808349CE8081CF
:100FB00091818737980751F29093FF0A8093FE0A38
:100FC000C5CF1092FF0A1092FE0A3ACE0E94390154
:100FD000DC0112960D911C910115110509F4E8CE62
:100FE000D801ED91FC910190F081E02DBE016B5E86
:100FF0007F4FC8010995811123CEF8010085118525
:10100000EBCF181619060CF41BCED2CEF1E0FF126E
:10101000BECE6EE071E004CF1F920F920FB60F921A
:1010200011242F933F934F935F936F937F938F93ED
:101030009F93AF93BF93EF93FF938DEC91E00E944A
:101040009002FF91EF91BF91AF919F918F917F910E
:101050006F915F914F913F912F910F900FBE0F9025
:101060001F9018951F920F920FB60F9211242F9375
:101070008F939F93EF93FF93E091DD01F091DE0159
:101080008081E091E301F091E40182FD1BC0908139
:101090008091E6018F5F8F732091E701821741F005
:1010A000E091E601F0E0E353FE4F958F8093E60177
:1010B000FF91EF919F918F912F910F900FBE0F9005
:1010C0001F9018958081F4CF1F920F920FB60F9248
:1010D00011242F933F938F939F93AF93BF9380914E
:1010E000B5019091B601A091B701B091B8013091CE
:1010F000A80123E0230F2D3758F50196A11DB11D3E
:101100002093A8018093B5019093B601A093B701F5
:10111000B093B8018091A9019091AA01A091AB016F
:10112000B091AC010196A11DB11D8093A9019093CE
:10113000AA01A093AB01B093AC01BF91AF919F9175
:101140008F913F912F910F900FBE0F901F90189588
:1011500026E8230F0296A11DB11DD2CFEDECF1E0E0
:101160001382128288EE93E0A0E0B0E0848395833E
:10117000A683B78329E231E0318320832DEC30E070
:10118000358724872CEC30E03787268728EC30E041
:10119000318B208B29EC30E0338B228B2AEC30E032
:1011A000358B248B2EEC30E0378B268B118E128EF4
:1011B000138E148EEAE6F2E0138212828483958302
:1011C000A683B7838BE391E0918380838FEF9FEFBA
:1011D000958784870895789484B5826084BD84B5AA
:1011E000816084BD85B5826085BD85B5816085BD22
:1011F00080916E00816080936E00109281008091DA
:101200008100826080938100809181008160809361
:1012100081008091800081608093800080919100A6
:101220008260809391008091910081608093910011
:10123000809190008160809390008091C1008460D3
:101240008093C1008091C10082608093C100809131
:10125000C10081608093C1008091C3008160809350
:10126000C3008091C00082608093C0008091C20062
:1012700081608093C20080917A00846080937A00BC
:1012800080917A00826080937A0080917A008160F8
:1012900080937A0080917A00806880937A0010921F
:1012A000CC011092B4011092B3018091D7008160FB
:1012B0008093D70080EA8093D80089B5806189BD8A
:1012C00089B5826089BD09B400FEFDCF61E070E0A0
:1012D00080E090E00E949F048091D8008F7C806124
:1012E0008093D8008091E000807F8093E00080911F
:1012F000E1008E7E8093E1008DE08093E200559ABC
:10130000209A5D9828988FEF9FEF909377028093B3
:101310007602E091DD01F091DE0182E08083E091D0
:10132000D901F091DA011082E091DB01F091DC014A
:1013300080E180831092E501E091E101F091E2010A
:1013400086E08083E091DF01F091E001808180619F
:101350008083E091DF01F091E001808188608083EB
:10136000E091DF01F091E001808180688083E0916D
:10137000DF01F091E00180818F7D80838BE491E03B
:101380000E94560568EC70E080E090E00E949F04A7
:101390008FE491E00E9456050E94630568EC70E0BE
:1013A00080E090E00E949F0482E691E00E94560552
:1013B0000E94630568EC70E080E090E00E949F046A
:1013C00087E691E00E9456050E94630568EC70E094
:1013D00080E090E00E949F048CE691E00E94560518
:1013E0000E94630568EC70E080E090E00E949F043A
:1013F00082E791E00E9456050E94630568EC70E068
:1014000080E090E00E949F0487E791E00E945605EB
:101410000E94630568EC70E080E090E00E949F0409
:101420008CE791E00E9456050E94630568EC70E02D
:1014300080E090E00E949F0484E891E00E945605BD
:101440000E94630568EC70E080E090E00E949F04D9
:1014500084E991E00E9456050E94630568EC70E003
:1014600080E090E00E949F048BE991E00E94560585
:101470000E94630568EC70E080E090E00E949F04A9
:1014800083EA91E00E9456050E94630568EB7BE0C9
:1014900080E090E00E949F0460E089E00E943E04AA
:1014A00061E089E00E94100460E088E00E943E0450
:1014B00061E088E00E94100460E083E10E943E0445
:1014C00061E083E10E94100462E08CE00E943E042F
:1014D00062E08DE00E943E04B0E0EB2EB0E0FB2E17
:1014E0008824839480910C01882309F4B2C0C6E15A
:1014F000D1E0912CC12CB99061E08B2D0E943E046B
:1015000060E08B2D0E94100404E111E0A12CF80191
:1015100021918F0130E0F901EA57FE4F8491F901E2
:10152000E959FE4FD490F901E85BFE4F74907110B9
:10153000BDC0A092BE01C092BD0199249394F1E078
:10154000AF12B1C061E08B2D0E941004C39483E000
:10155000C812D1CF992009F478C010920C01809163
:10156000BE0190E0E091BD019C01220F331F820F6C
:10157000931FE80FF92FF11DEE0FFF1FE75EFE4FDF
:1015800080819181019769F56EEF8DEC91E00E9469
:10159000B10262E08DEC91E00E94B10265E08DEC59
:1015A00091E00E94B10264E08DEC91E00E94B102F2
:1015B00064E670E080E090E00E949F042FB7F8940A
:1015C0008091B5019091B601A091B701B091B80199
:1015D0002FBF8093B9019093BA01A093BB01B09340
:1015E000BC018091BE0190E0E091BD019C01220F01
:1015F000331F820F931FE80FF92FF11DEE0FFF1F0E
:10160000E75EFE4F808191810297F9F481E00E94AC
:10161000FD0264E670E080E090E00E949F0480E0BC
:101620000E94FD022FB7F8948091B5019091B60108
:10163000A091B701B091B8012FBF8093B9019093E9
:10164000BA01A093BB01B093BC0180910C01811140
:101650001EC02FB7F8948091B5019091B601A0916A
:10166000B701B091B8012FBF4091B9015091BA01B3
:101670006091BB017091BC01841B950BA60BB70B4D
:10168000893C9105A105B10510F080920C01E1148F
:10169000F10409F427CF0E947C02882309F422CFA9
:1016A0000E9400001FCFAA24A39431CF81110E9471
:1016B000C403E72DF0E0EE0FFF1FE65CFE4FA5919F
:1016C000B491EC91DE2209F434CF39CFEE0FFF1F35
:0C16D0000590F491E02D0994F894FFCFF0
:1016DC00FFFFFFFF00E10000000000000100C180DF
:1016EC00810000000C0D0908130100020003000426
:1016FC00000500060000000000B10212023F0223A8
:10170C000370024E026202000000004303D1046425
:10171C00035903AA03680386030A002424240053F4
:10172C004E2C5465656E73795F4B6579626F61728F
:10173C00640053582C310053412C300053552C313C
:10174C003100534D2C3600537E2C360053482C3030
:10175C003230380053522C443839433637344441F4
:10176C003736380053572C3030300053592C4646FE
:08177C00464300522C3100002D
:00000001FF
